S010000050726F6A656374742E73726563C9
S11300000C943C000C9459000C9459000C94590025
S11300100C9459000C9459000C9459000C945900F8
S11300200C9459000C9459000C9459000C945900E8
S11300300C9459000C94CE010C9459000C94590062
S11300400C942D020C9459000C9459000C945900F2
S11300500C9459000C9459000C9459000C945900B8
S11300600C9459000C945900D700E700F7000701DD
S1130070170127013701470111241FBECFEFD8E034
S1130080DEBFCDBF13E0A0E0B1E0E2EFF4E002C0D8
S113009005900D92A030B107D9F723E0A0E0B3E0BA
S11300A001C01D92A330B207E1F70E9469010C94CC
S11300B077020C940000FC01408121E030E002C092
S11300C0220F331F6A95E2F7242B20830895FC0145
S11300D0808121E030E002C0220F331F6A95E2F7ED
S11300E02095822380838081818128232183089520
S11300F0FC01908121E030E002C0220F331F6A9599
S1130100E2F72095292320830895FC01408121E012
S113011030E002C0220F331F6A95E2F7242B2083BC
S11301200895FC01808190E002C0959587956A95B9
S1130130E2F7817008950F931F93CF93DF93CDB7A8
S1130140DEB760970FB6F894DEBF0FBECDBFFE01D9
S1130150319620E1DF011D922A95E9F71816190658
S11301600CF0A9C09C0121703078332334F4215061
S113017031092E6F3F6F2F5F3F4F219331939C01C5
S1130180992314F42F5F3F4FC9019595879518164D
S1130190190644F390C001501109F8013196E83072
S11301A0F10508F084C0EC5CFF4F0C947102898166
S11301B09A81892B31F060E085E290E00E9485000D
S11301C07DC060E085E290E00E94780077C08B817A
S11301D09C81892B31F061E085E290E00E948500EA
S11301E0DACF61E085E290E00E947800D4CF8D817F
S11301F09E81892B31F062E085E290E00E948500C7
S1130200CACF62E085E290E00E947800C4CF8F817B
S11302109885892B31F063E085E290E00E948500A7
S1130220BACF63E085E290E00E947800B4CF89857C
S11302309A85892B31F064E085E290E00E94850084
S1130240AACF64E085E290E00E947800A4CF8B8579
S11302509C85892B31F065E085E290E00E94850061
S11302609ACF65E085E290E00E94780094CF8D8576
S11302709E85892B31F066E085E290E00E9485003E
S11302808ACF66E085E290E00E94780084CF8F8573
S11302909889892B31F067E085E290E00E9485001F
S11302A07ACF67E085E290E00E94780074CF112352
S11302B00CF071CF03C006E010E06FCF60960FB66C
S11302C0F894DEBF0FBECDBFDF91CF911F910F9188
S11302D0089560E087E290E00E94670061E087E2B1
S11302E090E00E94670062E087E290E00E9467006D
S11302F063E087E290E00E945B0064E087E290E0C4
S11303000E945B0065E087E290E00E945B0066E08B
S113031087E290E00E945B0060E084E290E00E944B
S11303205B0061E084E290E00E945B0062E084E2B2
S113033090E00E945B0063E084E290E00E945B0036
S113034064E084E290E00E945B0065E084E290E077
S11303500E945B0066E084E290E00E945B0067E03C
S113036084E290E00E945B0085B58B7F85BD85B5F6
S1130370836085BDEEE6F0E0808181608083E1E802
S1130380F0E080818B7F8083808183608083EFE6CF
S1130390F0E08081816080837894FFCF1F920F9278
S11303A00FB60F9211242F933F934F935F936F9344
S11303B07F938F939F93AF93BF93EF93FF9363E0E8
S11303C088E290E00E94850064E088E290E00E9468
S11303D0780065E088E290E00E94780066E088E2B8
S11303E090E00E94780060E086E290E00E94910034
S11303F0813031F4809300031092020310920103C0
S113040061E086E290E00E949100813039F482E05C
S113041080930003109202031092010362E086E2CB
S113042090E00E949100813039F483E080930003CE
S11304301092020310920103FF91EF91BF91AF91CB
S11304409F918F917F916F915F914F913F912F91E8
S11304500F900FBE0F901F9018951F920F920FB61A
S11304600F9211242F933F934F935F936F937F9336
S11304708F939F93AF93BF93EF93FF938091000368
S11304808130F1F4E0910103F0910203EE0FFF1FBC
S1130490E050FF4F808191810E949B008091010375
S11304A0909102030196813021E0920728F4909301
S11304B002038093010304C010920203109201030B
S11304C0FF91EF91BF91AF919F918F917F916F9128
S11304D05F914F913F912F910F900FBE0F901F90FE
S11304E01895EE0FFF1F0590F491E02D0994F894F0
S10504F0FFCF38
S11304F280008300860089008C008F0092009500A2
S113050298009C009F00A200A500A800AB00AE00CA
S1130512B000B300B600B900BC00BF00C100C40003
S1130522C700C900CC00CE00D100D300D500D8004A
S1130532DA00DC00DE00E000E200E400E600E800AD
S1130542EA00EB00ED00EF00F000F200F300F4002B
S1130552F600F700F800F900FA00FB00FB00FC00CB
S1130562FD00FD00FE00FE00FE00FF00FF00FF0094
S1130572FF00FF00FF00FF00FE00FE00FD00FD0083
S1130582FC00FC00FB00FA00F900F800F700F6009A
S1130592F500F400F200F100EF00EE00EC00EB00D5
S11305A2E900E700E500E300E100DF00DD00DB0035
S11305B2D900D700D400D200CF00CD00CA00C800B1
S11305C2C500C300C000BD00BA00B800B500B20047
S11305D2AF00AC00A900A600A300A0009D009A00F1
S11305E29700940091008E008A00870084008100A5
S11305F27E007B007800750071006E006B0068005D
S1130602650062005F005C00590056005300500010
S11306124D004A004700450042003F003C003A00BA
S113062237003500320030002D002B002800260050
S11306322400220020001E001C001A0018001600CC
S113064214001300110010000E000D000B000A002C
S11306520900080007000600050004000300030067
S1130662020002000100010000000000000000007E
S1130672000000000000010001000100020002006D
S11306820300040004000500060007000800090036
S11306920B000C000D000F001000120014001500D6
S11306A2170019001B001D001F0021002300250054
S11306B227002A002C002E003100330036003800B7
S11306C23B003E0040004300460049004C004F00FE
S11306D25100540057005A005D0060006300670037
S11306E26A006D0070007300760079007C0080005F
S9030000FC
