S010000050726F6A656374742E73726563C9
S11300000C9434000C9446000C9446000C94460066
S11300100C9446000C9446000C9446000C94460044
S11300200C9446000C9446000C9446000C94460034
S11300300C9446000C94ED000C9446000C9446007D
S11300400C9446010C9446000C9446000C94460013
S11300500C9446000C9446000C9446000C94460004
S11300600C9446000C94460011241FBECFEFD8E038
S1130070DEBFCDBF21E0A0E0B1E001C01D92A230FF
S1130080B207E1F70E9488000C94B5030C940000B9
S1130090FC01408121E030E002C0220F331F6A9549
S11300A0E2F7242B20830895FC01808121E030E0D5
S11300B002C0220F331F6A95E2F7209582238083C2
S11300C080818181282321830895FC01908121E08E
S11300D030E002C0220F331F6A95E2F720952923EE
S11300E020830895FC01408121E030E002C0220F0A
S11300F0331F6A95E2F7242B20830895FC01808145
S113010090E002C0959587956A95E2F7817008950D
S113011060E087E290E00E94540061E087E290E0B2
S11301200E94540062E087E290E00E94540063E081
S113013087E290E00E94480064E087E290E00E9439
S1130140480065E087E290E00E94480066E087E2AC
S113015090E00E94480060E084E290E00E94480041
S113016061E084E290E00E94480062E084E290E072
S11301700E94480063E084E290E00E94480064E04A
S113018084E290E00E94480065E084E290E00E94EE
S1130190480066E084E290E00E94480067E084E260
S11301A090E00E94480085B58A7F85BD85B5826050
S11301B085BDEEE6F0E0808181608083E1E8F0E0D7
S11301C080818B7F8083808183608083EFE6F0E091
S11301D08081816080837894FFCF1F920F920FB645
S11301E00F9211242F933F934F935F936F937F93B9
S11301F08F939F93AF93BF93EF93FF9363E088E252
S113020090E00E94720064E088E290E00E94650041
S113021065E088E290E00E94650066E088E290E094
S11302200E94650060E086E290E00E947E008130DA
S113023021F4809300011092010161E086E290E0D4
S11302400E947E00813029F482E0809300011092A4
S1130250010162E086E290E00E947E00813029F490
S113026083E08093000110920101FF91EF91BF910F
S1130270AF919F918F917F916F915F914F913F913A
S11302802F910F900FBE0F901F9018951F920F92F1
S11302900FB60F9211242F933F934F935F936F9355
S11302A07F938F939F93AF93BF93EF93FF9380912B
S11302B00001813009F048C2809101018D3709F4B1
S11302C020C1A0F48E3309F478C030F48F3019F1D2
S11302D08E3109F449C033C2843609F4C0C08E3665
S11302E009F4E6C0803509F02AC290C08A3A09F4BC
S11302F083C138F48C3809F42DC1863909F453C10B
S11303001EC2803E09F4CAC18F3E09F4F0C1803C8C
S113031009F015C29AC160E085E290E00E94650090
S113032061E085E290E00E94650062E085E290E091
S11303300E94650063E085E290E00E94650064E04D
S113034085E290E00E94720065E085E290E00E9400
S1130350720066E085E290E00E94720067E085E248
S113036090E00E947200EBC160E085E290E00E94A0
S1130370650061E085E290E00E94650062E085E24C
S113038090E00E94650063E085E290E00E946500D1
S113039064E085E290E00E94650065E085E290E01B
S11303A00E94650066E085E290E00E94720067E0CA
S11303B085E290E00E947200C2C160E085E290E0B4
S11303C00E94650061E085E290E00E94650062E0C1
S11303D085E290E00E94650063E085E290E00E947F
S11303E0650064E085E290E00E94650065E085E2D6
S11303F090E00E94650066E085E290E00E9465005E
S113040067E085E290E00E94720099C160E085E2B5
S113041090E00E94650061E085E290E00E94650042
S113042062E085E290E00E94650063E085E290E08E
S11304300E94650064E085E290E00E94650065E04A
S113044085E290E00E94650066E085E290E00E940B
S1130450720067E085E290E00E94650070C160E090
S113046085E290E00E94650061E085E290E00E94F0
S1130470650062E085E290E00E94650063E085E249
S113048090E00E94650064E085E290E00E946500CF
S113049065E085E290E00E94720066E085E290E00B
S11304A00E94650067E085E290E00E94650047C114
S11304B060E085E290E00E94650061E085E290E002
S11304C00E94650062E085E290E00E94650063E0BE
S11304D085E290E00E94720064E085E290E00E9470
S11304E0650065E085E290E00E94650066E085E2D3
S11304F090E00E94650067E085E290E00E9465005C
S11305001EC160E085E290E00E94650061E085E242
S113051090E00E94650062E085E290E00E94650040
S113052063E085E290E00E94650064E085E290E08B
S11305300E94650065E085E290E00E94650066E047
S113054085E290E00E94650067E085E290E00E9409
S11305506500F5C060E085E290E00E94650061E01E
S113056085E290E00E94650062E085E290E00E94EE
S1130570650063E085E290E00E94720064E085E239
S113058090E00E94650065E085E290E00E946500CD
S113059066E085E290E00E94650067E085E290E015
S11305A00E946500CCC060E085E290E00E94650096
S11305B061E085E290E00E94650062E085E290E0FF
S11305C00E94650063E085E290E00E94650064E0BB
S11305D085E290E00E94650065E085E290E00E947B
S11305E0720066E085E290E00E94650067E085E2C3
S11305F090E00E946500A3C060E085E290E00E9464
S1130600650061E085E290E00E94650062E085E2B9
S113061090E00E94650063E085E290E00E9465003E
S113062064E085E290E00E94650065E085E290E088
S11306300E94650066E085E290E00E94720067E037
S113064085E290E00E9465007AC060E085E290E077
S11306500E94650061E085E290E00E94650062E02E
S113066085E290E00E94650063E085E290E00E94EC
S1130670650064E085E290E00E94650065E085E243
S113068090E00E94650066E085E290E00E946500CB
S113069067E085E290E00E94720051C060E085E26C
S11306A090E00E94650061E085E290E00E946500B0
S11306B062E085E290E00E94650063E085E290E0FC
S11306C00E94650064E085E290E00E94650065E0B8
S11306D085E290E00E94650066E085E290E00E9479
S11306E0720067E085E290E00E94720028C060E03A
S11306F085E290E00E94650061E085E290E00E945E
S1130700650062E085E290E00E94650063E085E2B6
S113071090E00E94650064E085E290E00E9472002F
S113072065E085E290E00E94720066E085E290E078
S11307300E94720067E085E290E00E94720080915E
S113074001018F5F80930101FF91EF91BF91AF9100
S11307509F918F917F916F915F914F913F912F91D5
S11107600F900FBE0F901F901895F894FFCFC6
S9030000FC
