S010000050726F6A656374742E73726563C9
S11300000C943C000C9459000C9459000C94590025
S11300100C9459000C9459000C9459000C945900F8
S11300200C9459000C9459000C9459000C945900E8
S11300300C9459000C94BF030C9459000C9459006F
S11300400C9474020C9459000C9449050C94770593
S11300500C9459000C9459000C9459000C945900B8
S11300600C9459000C9459006E017E018E019E017E
S1130070AE01BE01CE01DE0111241FBECFEFD8E0D8
S1130080DEBFCDBF15E0A0E0B1E0ECECFBE002C0C8
S113009005900D92A43EB107D9F726E0A4EEB5E091
S11300A001C01D92AB32B207E1F70E9400020C942A
S11300B0E4050C940000FC01408121E030E002C022
S11300C0220F331F6A95E2F7242B20830895FC0145
S11300D0808121E030E002C0220F331F6A95E2F7ED
S11300E02095822380838081818128232183089520
S11300F0FC01908121E030E002C0220F331F6A9599
S1130100E2F72095292320830895FC01408121E012
S113011030E002C0220F331F6A95E2F7242B2083BC
S11301200895FC01808190E002C0959587956A95B9
S1130130E2F781700895299A000029980895CF93D1
S1130140C82F662311F0289A01C02898549A559A0A
S1130150569A579A5F985E985D985C98CC230CF4F5
S11301605F9AC6FD5E9AC5FD5D9AC4FD5C9A0E94C5
S11301709B005F985E985D985C98C3FD5F9AC2FD92
S11301805E9AC1FD5D9AC0FD5C9A0E949B005C9AD8
S11301905D9A5E9A5F9A8AEF8A95F1F7CF910895F6
S11301A060E00E949F000895611104C080580E947D
S11301B0D000089580540E94D000089581E00E94E8
S11301C0D000089561E00E949F000895CF93DF93CB
S11301D0EC012196FC018081882329F00E94E20031
S11301E089918111FBCFDF91CF910895CF93C82FCF
S11301F0209A559A219A549A559A569A579A8FE961
S11302009FE00197F1F700C000005D9A5C9A0E949C
S11302109B0081EE94E00197F1F700C000000E947A
S11302209B0095E19A95F1F700000E949B0085E1FF
S11302308A95F1F700005C980E949B0095E19A95DD
S1130240F1F7000088E20E94D00088E00E94D0000C
S11302500E94DE0086E00E94D0008C2F0E94D00015
S1130260CF9108950F931F93CF93DF93CDB7DEB74C
S113027060970FB6F894DEBF0FBECDBFFE01319676
S113028020E1DF011D922A95E9F7181619060CF0F2
S1130290A9C09C0121703078332334F421503109F2
S11302A02E6F3F6F2F5F3F4F219331939C01992312
S11302B014F42F5F3F4FC9019595879518161906B9
S11302C044F390C001501109F8013196E830F1056A
S11302D008F084C0EC5CFF4F0C94DE0589819A81A0
S11302E0019731F460E085E290E00E9485007DC0D2
S11302F060E085E290E00E94780077C08B819C8169
S1130300019731F461E085E290E00E948500DACF44
S113031061E085E290E00E947800D4CF8D819E81D7
S1130320019731F462E085E290E00E948500CACF33
S113033062E085E290E00E947800C4CF8F819885C6
S1130340019731F463E085E290E00E948500BACF22
S113035063E085E290E00E947800B4CF89859A85B5
S1130360019731F464E085E290E00E948500AACF11
S113037064E085E290E00E947800A4CF8B859C85A0
S1130380019731F465E085E290E00E9485009ACF00
S113039065E085E290E00E94780094CF8D859E858B
S11303A0019731F466E085E290E00E9485008ACFEF
S11303B066E085E290E00E94780084CF8F8598897A
S11303C0019731F467E085E290E00E9485007ACFDE
S11303D067E085E290E00E94780074CF11230CF06E
S11303E071CF03C006E010E06FCF60960FB6F894AB
S11303F0DEBF0FBECDBFDF91CF911F910F91089546
S113040060E087E290E00E94670061E087E290E0AC
S11304100E94670062E087E290E00E94670063E068
S113042087E290E00E945B0064E087E290E00E9433
S11304305B0065E087E290E00E945B0066E087E293
S113044090E00E945B0060E084E290E00E945B0028
S113045061E084E290E00E945B0062E084E290E06C
S11304600E945B0063E084E290E00E945B0064E031
S113047084E290E00E945B0065E084E290E00E94E8
S11304805B0066E084E290E00E945B0067E084E247
S113049090E00E945B008CE00E94F60060E080E047
S11304A00E94D40087E294E00E94E60085B58B7F29
S11304B085BD85B5836085BDEEE6F0E08081816011
S11304C08083E1E8F0E080818B7F8083808183609A
S11304D08083EFE6F0E080818160808387E690E0AE
S11304E00E94A1057894FFCF1F920F920FB60F922E
S11304F011242F933F934F935F936F937F938F9325
S11305009F93AF93BF93EF93FF938091E405813062
S113051071F4E091E505F0E0E85DFC4F808190E046
S11305200E9432018091E5058F5F8093E5058091FB
S1130530E405823071F4E091E505F0E0E85DFD4FFB
S1130540808190E00E9432018091E5058F5F809365
S1130550E5058091E405833071F4E091E505F0E070
S1130560E85DFE4F808190E00E9432018091E505B4
S11305708F5F8093E5058091E405843009F068C0BD
S11305808091E505811128C060E085E290E00E9439
S1130590780061E085E290E00E94780062E085E204
S11305A090E00E94780063E085E290E00E94780089
S11305B064E085E290E00E94850065E085E290E0D9
S11305C00E94850066E085E290E00E94850067E075
S11305D085E290E00E9485008091E5058F5F80931D
S11305E0E505803841F560E085E290E00E947800FE
S11305F061E085E290E00E94780062E085E290E0AC
S11306000E94780063E085E290E00E94780064E054
S113061085E290E00E94780065E085E290E00E9427
S1130620780066E085E290E00E94780067E085E269
S113063090E00E9478008091E5058F3F09F089C021
S11306401092E5058091E405853009F068C036C054
S1130650853009F064C08091E5058F3F19F410924C
S1130660E50558C08091E505823341F560E085E2F7
S113067090E00E94780061E085E290E00E947800BA
S113068062E085E290E00E94780063E085E290E019
S11306900E94780064E085E290E00E94850065E0B5
S11306A085E290E00E94850066E085E290E00E9489
S11306B0850067E085E290E00E9485008091E50571
S11306C0873341F560E085E290E00E94780061E0C4
S11306D085E290E00E94780062E085E290E00E946A
S11306E0780063E085E290E00E94780064E085E2AF
S11306F090E00E94780065E085E290E00E94780036
S113070066E085E290E00E94780067E085E290E090
S11307100E9478008091E5058F5F8093E5058091C4
S1130720E4058630D9F4E091E505F0E0EE0FFF1F13
S1130730E050FF4F808191810E9432018091E50554
S11307408F5F853118F48093E50508C01092E505A4
S113075005C08091E405853011F784CFFF91EF91B6
S1130760BF91AF919F918F917F916F915F914F91C5
S11307703F912F910F900FBE0F901F9018951F92CD
S11307800F920FB60F9211242F933F934F935F93C1
S11307906F937F938F939F93AF93BF93EF93FF9345
S11307A063E088E290E00E94850064E088E290E0E3
S11307B00E94780065E088E290E00E94780066E09C
S11307C088E290E00E94780060E086E290E00E9477
S11307D09100813021F48093E4051092E50561E0F5
S11307E086E290E00E949100813029F482E08093B7
S11307F0E4051092E50562E086E290E00E94910033
S1130800813029F483E08093E4051092E50563E0E8
S113081088E290E00E94780064E088E290E00E9420
S1130820850065E088E290E00E94780066E088E256
S113083090E00E94780060E086E290E00E949100DF
S1130840813029F484E08093E4051092E50561E0A9
S113085086E290E00E949100813029F485E0809343
S1130860E4051092E50562E086E290E00E949100C2
S1130870813029F486E08093E4051092E50563E075
S113088088E290E00E94780064E088E290E00E94B0
S1130890780065E088E290E00E94850066E088E2E6
S11308A090E00E94780060E086E290E00E9491006F
S11308B0813029F484E08093E4051092E50561E039
S11308C086E290E00E949100813029F485E08093D3
S11308D0E4051092E50562E086E290E00E94910052
S11308E0813031F486E08093E4051092E5052FC051
S11308F08091E405811113C061E00E94D40085E376
S113090094E00E94E60061E080E00E94D4008BE362
S113091094E00E94E6008BE494E00E94CF0580916D
S1130920E4058130A1F461E080E00E94D40085E315
S113093094E00E94E60061E080E00E94D40084E834
S113094094E00E94E6008EE894E00E94CF05809136
S1130950E4058230A1F461E080E00E94D40085E3E4
S113096094E00E94E60061E080E00E94D4008EEAF8
S113097094E00E94E6008AEB94E00E94CF05809107
S1130980E4058330A1F461E080E00E94D40085E3B3
S113099094E00E94E60061E080E00E94D4008CEDC7
S11309A094E00E94E6008CEE94E00E94CF058091D2
S11309B0E4058430A1F461E080E00E94D40085E382
S11309C094E00E94E60061E080E00E94D40087E1A8
S11309D095E00E94E60088E295E00E94CF058091B0
S11309E0E4058530A1F461E080E00E94D40085E351
S11309F094E00E94E60061E080E00E94D40084E577
S1130A0095E00E94E6008DE595E00E94CF05809177
S1130A10E4058630A1F461E080E00E94D40085E31F
S1130A2094E00E94E60061E080E00E94D40081E846
S1130A3095E00E94E6008EE895E00E94CF05809143
S1130A40E40587508630A0F461E080E00E94D40081
S1130A5085E394E00E94E60061E080E00E94D40017
S1130A6081EB95E00E94E60082EC95E00E94CF05C0
S1130A70FF91EF91BF91AF919F918F917F916F9172
S1130A805F914F913F912F910F900FBE0F901F9048
S1130A9018951F920F920FB60F9211242F938F93D4
S1130AA09F93EF93FF938091C0002091C6008C71B7
S1130AB0E091E805EF5FEF719091E705E91739F0F0
S1130AC0E093E805F0E0E551FA4F208301C082E0AD
S1130AD09091E605892B8093E605FF91EF919F9114
S1130AE08F912F910F900FBE0F901F9018951F920A
S1130AF00F920FB60F9211248F939F93EF93FF934E
S1130B009091EA058091E905981769F0E091E9056B
S1130B10EF5FEF71E093E905F0E0E55FF94F808165
S1130B208093C60005C0E1ECF0E080818F7D808376
S1130B30FF91EF919F918F910F900FBE0F901F9097
S1130B4018951092EA051092E9051092E8051092A2
S1130B50E70599231CF422E02093C0009078909339
S1130B60C5008093C40088E98093C10086E0809327
S1130B70C20008952091EA052F5F2F719091E90535
S1130B802917E1F3E22FF0E0E55FF94F808320932A
S1130B90EA05E1ECF0E08081806280830895CF93E0
S1130BA0DF93EC018881882331F021960E94BA05F5
S1130BB089918111FBCFDF91CF910895EE0FFF1F33
S10F0BC00590F491E02D0994F894FFCF07
S1130BCC78009D00BF00D900EA00F000EA00D900CB
S1130BDCBF009D0078005300310017000600000090
S1130BEC06001700310053000004080B0F13161AEB
S1130BFC1D2124272B2E3134373A3D404346494B93
S1130C0C4E515356595B5E60626567696C6E7072C7
S1130C1C7476787A7C7E8082848688898B8D8E909B
S1130C2C92939597989A9B9D9E9FA1A2A4A5A6A8E2
S1130C3CA9AAABADAEAFB0B1B2B3B5B6B7B8B9BA89
S1130C4CBBBCBDBEBFC0C0C1C2C3C4C5C6C6C7C879
S1130C5CC9CACACBCCCCCDCECFCFD0D1D1D2D2D3A2
S1130C6CD4D4D5D5D6D7D7D8D8D9D9DADADBDBDCF6
S1130C7CDCDDDDDEDEDEDFDFE0E0E0E1E1E2E2E26E
S1130C8CE3E3E3E4E4E4E5E5E5E6E6E6E7E7E7E801
S1130C9CE8E8E8E9E9E9EAEAEAEAEBEBEBEBEBECA6
S1130CACECECECEDEDEDEDEDEEEEEEEEEEEEEFEF5D
S1130CBCEFEFEFF0F0F0F0F0F0F0F1F1F1F1F1F121
S1130CCCF1F2F2F2F2F2F2F2F2F3F3F3F3F3F3F3EE
S1130CDCF3F3F4F4F4F4F4F4F4F4F4F4F4F5F5F5C3
S1130CECF5F5F5F5F5F5F5F5020406080A0C0E1004
S1130CFC12141517191B1D1F21232527292B2D2FE2
S1130D0C31333537393B3D3F40424446484A4C4EDB
S1130D1C50525456585A5C5E6062646668696B6DD6
S1130D2C6F71737577797B7D7F81838587898B8DD3
S1130D3C8F91929496989A9C9EA0A2A4A6A8AAACD1
S1130D4CAEB0B2B4B6B8BABCBDBFC1C3C5C7C9CBCB
S1130D5CCDCFD1D3D5D7D9DBDDDFE1E3E5E6E8EAC6
S1130D6CECEEF0F2F4F6F8FAF8F6F4F2F0EEECEA53
S1130D7CE8E6E5E3E1DFDDDBD9D7D5D3D1CFCDCBC5
S1130D8CC9C7C5C3C1BFBDBCBAB8B6B4B2B0AEACAA
S1130D9CAAA8A6A4A2A09E9C9A98969492918F8D90
S1130DAC8B89878583817F7D7B79777573716F6D73
S1130DBC6B6968666462605E5C5A58565452504E55
S1130DCC4C4A48464442403F3D3B39373533312F3A
S1130DDC2D2B29272523211F1D1B19171514121020
S1130DEC0E0C0A0806040200808386898C8F929567
S1130DFC989C9FA2A5A8ABAEB0B3B6B9BCBFC1C4F6
S1130E0CC7C9CCCED1D3D5D8DADCDEE0E2E4E6E84F
S1130E1CEAEBEDEFF0F2F3F4F6F7F8F9FAFBFBFC7E
S1130E2CFDFDFEFEFEFFFFFFFFFFFFFFFEFEFDFDCF
S1130E3CFCFCFBFAF9F8F7F6F5F4F2F1EFEEECEB57
S1130E4CE9E7E5E3E1DFDDDBD9D7D4D2CFCDCAC8FE
S1130E5CC5C3C0BDBAB8B5B2AFACA9A6A3A09D9A80
S1130E6C9794918E8A8784817E7B7875716E6B687A
S1130E7C65625F5C595653504D4A4745423F3C3A74
S1130E8C373532302D2B28262422201E1C1A1816F6
S1130E9C141311100E0D0B0A09080706050403039D
S1130EAC0202010100000000000000010101020225
S1130EBC03040405060708090B0C0D0F1012141576
S1130ECC17191B1D1F212325272A2C2E31333638A5
S1130EDC3B3E404346494C4F5154575A5D606367FF
S1130EEC6A6D707376797C4F555450555420534920
S1130EFC474E414C000909090909004E6F6E6520E3
S1130F0C696E7075742064617461004E6F6E652037
S1130F1C696E70757420646174612E2E2E200D0A16
S1130F2C202C2C2C2044544D46206B657970616424
S1130F3C206672657175656E63696573202E2E2E3D
S1130F4C200D0A0053494E452057415645004F7514
S1130F5C74707574207369676E616C202D205369ED
S1130F6C6E6520776176652E2E2E200D0A00535166
S1130F7C554152452057415645004F757470757450
S1130F8C207369676E616C202D20537175617265D5
S1130F9C20776176652E2E2E200D0A005249534976
S1130FAC4E4720534157544F4F5448004F7574705B
S1130FBC7574207369676E616C202D205269736996
S1130FCC6E6720736177746F6F74682077617665D0
S1130FDC2E2E2E200D0A0046414C4C494E472053D0
S1130FEC4157544F4F5448004F75747075742073A7
S1130FFC69676E616C202D2046616C6C696E67208C
S113100C736177746F6F746820776176652E2E2EFA
S113101C200D0A00545249414E474C45004F7574FB
S113102C707574207369676E616C202D205472691D
S113103C616E676C6520776176652E2E2E200D0A05
S113104C0044495241432050554C534553004F756D
S113105C74707574207369676E616C202D204469FB
S113106C7261632070756C7365732E2E2E200D0ABD
S113107C00202D2D2D2D204E6F6E65202D2D2D2D08
S113108C20004F7574707574207369676E616C3AC7
S113109C202D2D2D2D204E6F6E65202D2D2D2D20C8
S10710AC0D0A000025
S9030000FC
