S010000050726F6A656374742E73726563C9
S11300000C9434000C9446000C9446000C94460066
S11300100C9446000C9446000C9446000C94460044
S11300200C9446000C9446000C9446000C94460034
S11300300C9446000C9446000C9446000C94460024
S11300400C9446000C9446000C9446000C94460014
S11300500C9446000C9446000C9446000C94460004
S11300600C9446000C94460011241FBECFEFD8E038
S1130070DEBFCDBF21E0A0E0B1E001C01D92A03001
S1130080B207E1F70E9488000C9400010C94000070
S1130090FC01408121E030E002C0220F331F6A9549
S11300A0E2F7242B20830895FC01808121E030E0D5
S11300B002C0220F331F6A95E2F7209582238083C2
S11300C080818181282321830895FC01908121E08E
S11300D030E002C0220F331F6A95E2F720952923EE
S11300E020830895FC01408121E030E002C0220F0A
S11300F0331F6A95E2F7242B20830895FC01808145
S113010090E002C0959587956A95E2F7817008950D
S113011060E08AE290E00E94540061E08AE290E0AC
S11301200E94540062E08AE290E00E94540063E07E
S11301308AE290E00E94480064E08AE290E00E9433
S1130140480065E08AE290E00E94480066E08AE2A6
S113015090E00E94480066E087E290E00E94480038
S113016066E088E290E00E94650065E087E290E046
S11301700E94480065E088E290E00E94650063E028
S11301808BE290E00E94650064E08BE290E00E94C4
S1130190650065E08BE290E00E94720066E08BE20D
S11301A090E00E94650060E089E290E00E947E0099
S11301B0813029F466E086E290E00E94720063E0F8
S11301C08BE290E00E94650064E08BE290E00E9484
S11301D0720065E08BE290E00E94650066E08BE2CD
S11301E090E00E94650061E089E290E00E947E0058
S11301F0813029F665E086E290E00E947200BFCF6C
S1070200F894FFCF9C
S9030000FC
