S00F000030372D756172742E73726563C5
S11300000C9434000C9451000C9451000C94510045
S11300100C9451000C9451000C9451000C94510018
S11300200C9451000C9451000C9451000C94510008
S11300300C9451000C943E010C9451000C9451000A
S11300400C9451000C9451000C9462020C94900294
S11300500C9451000C9453010C9451000C945100D5
S11300600C9451000C94510011241FBECFEFD8E022
S1130070DEBFCDBF11E0A0E0B1E0ECE5F6E002C0E8
S113008005900D92A635B107D9F721E0A6E5B1E0B8
S113009001C01D92AB39B207E1F70E94EA000C944B
S11300A02C030C940000299A000029980895CF93FA
S11300B0C82F662311F0289A01C02898549A559A9B
S11300C0569A579A5F985E985D985C98CC230CF486
S11300D05F9AC6FD5E9AC5FD5D9AC4FD5C9A0E9456
S11300E053005F985E985D985C98C3FD5F9AC2FD6B
S11300F05E9AC1FD5D9AC0FD5C9A0E9453005C9AB1
S11301005D9A5E9A5F9A8AEF8A95F1F7CF91089586
S113011060E00E9457000895611104C080580E9455
S11301208800089580540E948800089581E00E9408
S11301308800089561E00E9457000895CF93DF93EB
S1130140EC012196FC018081882329F00E949A0009
S113015089918111FBCFDF91CF910895CF93C82F5F
S1130160209A559A219A549A559A569A579A8FE9F1
S11301709FE00197F1F700C000005D9A5C9A0E942D
S1130180530081EE94E00197F1F700C000000E9453
S1130190530095E19A95F1F700000E94530085E120
S11301A08A95F1F700005C980E94530095E19A95B6
S11301B0F1F7000088E20E94880088E00E9488002D
S11301C00E94960086E00E9488008C2F0E9488007E
S11301D0CF9108958CE00E94AE0060E081E00E941F
S11301E08C008BE091E00E949E0061E083E00E941D
S11301F08C0082E191E00E949E0060E088E00E9411
S11302008C0087E191E00E949E0060E08DE00E94F6
S11302108C0089E191E00E949E0061E088E00E94E8
S11302208C008BE191E00E949E00ECE7F0E080817D
S11302308064808380818F7780838081807F8083C6
S1130240EAE7F0E080818068808380818860808331
S1130250808187608083E1E8F0E080818B7F808308
S1130260808183608083EFE6F0E080818160808319
S113027087E690E00E94BA027894FFCF1F920F9213
S11302800FB60F9211248F93EF93FF93EAE7F0E0F8
S1130290808180648083FF91EF918F910F900FBED6
S11302A00F901F9018951F920F920FB60F92112462
S11302B00F931F932F933F934F935F936F937F936A
S11302C08F939F93AF93BF93EF93FF93CF93DF935A
S11302D0CDB7DEB7CA54D109DEBFCDBF00917800D7
S11302E0109179008AE0E0E0F1E0DE0111960190DE
S11302F00D928A95E1F760E088E00E948C00CE01BF
S113030001960E949E004AE0BE016F5F7F4FC801C4
S11303100E94F70260E088E00E948C00CE01019602
S11303200E949E008DE191E00E94E802CE010196B8
S11303300E94E80284E391E00E94E80240E1BE01E9
S11303406F5F7F4FC8010E94F70260E08DE00E945A
S11303508C00CE0101960E949E0061E088E00E941C
S11303608C0080E091E00E949E0061E088E00E94A1
S11303708C000B3F83E0180720F087E391E00E9494
S11303809E00C8010B978D3B910520F48CE391E00E
S11303900E949E00C8018E5C91098E35910520F45F
S11303A08FE391E00E949E00C8018F5591408336EF
S11303B0910520F484E491E00E949E00C8018955CF
S11303C092408336910520F489E491E00E949E00D6
S11303D00530110520F480E591E00E949E00093E5D
S11303E083E0180730F401151105A1F480E090E0D2
S11303F03FC04AE0BE016F5F7F4F80E090E00E9403
S1130400F70261E08FE00E948C00CE0101960E9409
S11304109E003CC0DE011B96E0E0F0E001C0FC0160
S1130420C801817099278D939D9316950795CF01E7
S113043001960115110599F71E161F06BCF4EE0F5F
S1130440FF1FEC0FFD1F3D96AE01435F5F4F80E041
S113045090E0329122912130310511F4019602C0CD
S113046080E090E0E417F507A1F702C080E090E097
S11304704AE0BE016F5F7F4F0E94F70261E08FE0A8
S11304800E948C00CE0101960E949E00C65BDF4F45
S11304900FB6F894DEBF0FBECDBFDF91CF91FF91B1
S11304A0EF91BF91AF919F918F917F916F915F91E8
S11304B04F913F912F911F910F910F900FBE0F906D
S11304C01F9018951F920F920FB60F9211242F931D
S11304D08F939F93EF93FF938091C0002091C60068
S11304E08C71E0915801EF5FEF7190915701E9171A
S11304F039F0E0935801F0E0E55AFE4F208301C043
S113050082E090915601892B80935601FF91EF91DF
S11305109F918F912F910F900FBE0F901F90189560
S11305201F920F920FB60F9211248F939F93EF9304
S1130530FF9390915A0180915901981769F0E091C5
S11305405901EF5FEF71E0935901F0E0E558FE4F78
S113055080818093C60005C0E1ECF0E080818F7D4E
S11305608083FF91EF919F918F910F900FBE0F9019
S11305701F90189510925A01109259011092580127
S11305801092570199231CF422E02093C000907824
S11305909093C5008093C40088E98093C10086E0ED
S11305A08093C200089520915A012F5F2F7190917A
S11305B059012917E1F3E22FF0E0E558FE4F80835B
S11305C020935A01E1ECF0E08081806280830895F9
S11305D0CF93DF93EC018881882331F021960E9428
S11305E0D30289918111FBCFDF91CF910895BB276D
S11305F04A3031F4992322F4BDE2909581959F4FBE
S11306000C940303BB27FB015527AA27880F991FC6
S1130610AA1FA41710F0A41B83955051B9F7A05D2D
S1130620AA3308F0A95DA193009779F7B111B193AA
S11306301192CB010C941C03DC01FC01672F719116
S11306407723E1F7329704C07C916D9370836291B4
S10F0650AE17BF07C8F30895F894FFCF5D
S113065C202020202020202020200076616C75652D
S113066C3A006B65793A00610062006300414443CF
S113067C2076616C756520696E20646563696D61B3
S113068C6C3A20000D0A004E6F6E65005550004404
S113069C4F574E004C4546540053454C454354006B
S10906AC524947485400C6
S9030000FC
