S01700004763634170706C69636174696F6E312E737265635B
S11300000C943C000C9459000C9459000C94590025
S11300100C9459000C9459000C9459000C945900F8
S11300200C9459000C9459000C9459000C945900E8
S11300300C9459000C94C9030C9459000C94590065
S11300400C9480020C9459000C94FA050C94280624
S11300500C9459000C9459000C9459000C945900B8
S11300600C9459000C9459007A018A019A01AA014E
S1130070BA01CA01DA01EA0111241FBECFEFD8E0A8
S1130080DEBFCDBF16E0A0E0B1E0EEE2FDE002C0CD
S113009005900D92A63AB107D9F727E0A6EAB6E093
S11300A001C01D92AD30B207E1F70E940C020C941E
S11300B095060C940000FC01408121E030E002C070
S11300C0220F331F6A95E2F7242B20830895FC0145
S11300D0808121E030E002C0220F331F6A95E2F7ED
S11300E02095822380838081818128232183089520
S11300F0FC01908121E030E002C0220F331F6A9599
S1130100E2F72095292320830895FC01408121E012
S113011030E002C0220F331F6A95E2F7242B2083BC
S11301200895FC01808190E002C0959587956A95B9
S1130130E2F7817008955B9A85E08A95F1F70000F3
S11301405B980895CF93C82F662311F05A9A01C083
S11301505A98549A559A569A579A5F985E985D9809
S11301605C98CC230CF45F9AC6FD5E9AC5FD5D9A3B
S1130170C4FD5C9A0E949B005F985E985D985C98B1
S1130180C3FD5F9AC2FD5E9AC1FD5D9AC0FD5C9A93
S11301900E949B005C9A5D9A5E9A5F9A87EB9BE053
S11301A00197F1F700C00000CF91089560E00E942C
S11301B0A2000895611104C080580E94D6000895D9
S11301C080540E94D600089581E00E94D6000895CC
S11301D061E00E94A2000895CF93DF93EC01219681
S11301E0FC018081882329F00E94E8008991811113
S11301F0FBCFDF91CF910895CF93C82F529A559A90
S1130200539A549A559A569A579A8FEF99EF0197A1
S1130210F1F700C000005D9A5C9A0E949B008FE198
S11302209EE40197F1F700C000000E949B008FEF4D
S113023090E00197F1F700C000000E949B008FEF4F
S113024090E00197F1F700C000005C980E949B00C9
S11302508FEF90E00197F1F700C0000088E20E9460
S1130260D60088E00E94D6000E94E40086E00E9446
S1130270D6008C2F0E94D600CF9108950F931F9320
S1130280CF93DF93CDB7DEB760970FB6F894DEBF98
S11302900FBECDBFFE01319620E1DF011D922A95EC
S11302A0E9F7181619060CF0A9C09C0121703078E2
S11302B0332334F4215031092E6F3F6F2F5F3F4FAA
S11302C0219331939C01992314F42F5F3F4FC9016B
S11302D0959587951816190644F390C00150110995
S11302E0F8013196E830F10508F084C0EC5CFF4F6A
S11302F00C948F0689819A81019731F460E085E23C
S113030090E00E9485007DC060E085E290E00E945C
S1130310780077C08B819C81019731F461E085E29C
S113032090E00E948500DACF61E085E290E00E94CF
S11303307800D4CF8D819E81019731F462E085E20B
S113034090E00E948500CACF62E085E290E00E94BE
S11303507800C4CF8F819885019731F463E085E2FA
S113036090E00E948500BACF63E085E290E00E94AD
S11303707800B4CF89859A85019731F464E085E2E9
S113038090E00E948500AACF64E085E290E00E949C
S11303907800A4CF8B859C85019731F465E085E2D4
S11303A090E00E9485009ACF65E085E290E00E948B
S11303B0780094CF8D859E85019731F466E085E2BF
S11303C090E00E9485008ACF66E085E290E00E947A
S11303D0780084CF8F859889019731F467E085E2AE
S11303E090E00E9485007ACF67E085E290E00E9469
S11303F0780074CF11230CF071CF03C006E010E035
S11304006FCF60960FB6F894DEBF0FBECDBFDF91FD
S1130410CF911F910F91089560E087E290E00E94D0
S1130420670061E087E290E00E94670062E087E293
S113043090E00E94670063E087E290E00E945B0026
S113044064E087E290E00E945B0065E087E290E070
S11304500E945B0066E087E290E00E945B0060E03F
S113046084E290E00E945B0061E084E290E00E94FC
S11304705B0062E084E290E00E945B0063E084E25F
S113048090E00E945B0064E084E290E00E945B00E4
S113049065E084E290E00E945B0066E084E290E024
S11304A00E945B0067E084E290E00E945B008CE0C5
S11304B00E94FC0060E080E00E94DA0083E194E0A6
S11304C00E94EC0085B58B7F85BD85B5836085BDB5
S11304D0EEE6F0E0808181608083E1E8F0E08081F5
S11304E08B7F8083808183608083EFE6F0E080816E
S11304F08160808387E690E00E9452067894FFCF63
S11305001F920F920FB60F9211242F933F934F9384
S11305105F936F937F938F939F93AF93BF93EF9367
S1130520FF938091A606813071F4E091A706F0E074
S1130530EC5EFC4F808190E00E943E018091A70612
S11305408F5F8093A7068091A606823071F4E091B4
S1130550A706F0E0EC5EFD4F808190E00E943E0132
S11305608091A7068F5F8093A7068091A6068330AB
S113057071F4E091A706F0E0EC5EFE4F808190E01C
S11305800E943E018091A7068F5F8093A706809109
S1130590A606843009F068C08091A706811128C09E
S11305A060E085E290E00E94780061E085E290E0FE
S11305B00E94780062E085E290E00E94780063E0A7
S11305C085E290E00E94780064E085E290E00E9479
S11305D0850065E085E290E00E94850066E085E2A2
S11305E090E00E94850067E085E290E00E9485002B
S11305F08091A7068F5F8093A706803841F560E05D
S113060085E290E00E94780061E085E290E00E943B
S1130610780062E085E290E00E94780063E085E281
S113062090E00E94780064E085E290E00E94780007
S113063065E085E290E00E94780066E085E290E063
S11306400E94780067E085E290E00E947800809143
S1130650A7068F3F09F087C01092A7068091A606CF
S1130660853009F068C036C0853009F064C08091D7
S1130670A7068F3F19F41092A70658C08091A706C9
S1130680823341F560E085E290E00E94780061E009
S113069085E290E00E94780062E085E290E00E94AA
S11306A0780063E085E290E00E94780064E085E2EF
S11306B090E00E94850065E085E290E00E9485005C
S11306C066E085E290E00E94850067E085E290E0C4
S11306D00E9485008091A706873341F560E085E29A
S11306E090E00E94780061E085E290E00E9478004A
S11306F062E085E290E00E94780063E085E290E0A9
S11307000E94780064E085E290E00E94780065E051
S113071085E290E00E94780066E085E290E00E9425
S1130720780067E085E290E00E9478008091A70657
S11307308F5F8093A7068091A6068630C9F4E09166
S1130740A706F0E0E050FF4F808190E00E943E0158
S11307508091A7068F5F853118F48093A70608C09F
S11307601092A70605C08091A606853021F786CF92
S1130770FF91EF91BF91AF919F918F917F916F9175
S11307805F914F913F912F910F900FBE0F901F904B
S113079018951F920F920FB60F9211242F933F9327
S11307A04F935F936F937F938F939F93AF93BF9375
S11307B0EF93FF9363E088E290E00E94850064E099
S11307C088E290E00E94780065E088E290E00E9470
S11307D0780066E088E290E00E94780060E086E2BB
S11307E090E00E949100813021F48093A60610923B
S11307F0A70661E086E290E00E949100813029F42E
S113080082E08093A6061092A70662E086E290E05A
S11308100E949100813029F483E08093A60610920F
S1130820A70663E088E290E00E94780064E088E232
S113083090E00E94850065E088E290E00E947800E4
S113084066E088E290E00E94780060E086E290E052
S11308500E949100813029F484E08093A6061092CE
S1130860A70661E086E290E00E949100813029F4BD
S113087085E08093A6061092A70662E086E290E0E7
S11308800E949100813029F486E08093A60610929C
S1130890A70663E088E290E00E94780064E088E2C2
S11308A090E00E94780065E088E290E00E94850074
S11308B066E088E290E00E94780060E086E290E0E2
S11308C00E949100813029F487E08093A60610925B
S11308D0A70661E086E290E00E949100813029F44D
S11308E088E08093A6061092A70662E086E290E074
S11308F00E949100813029F489E08093A606109229
S1130900A70663E088E290E00E94780064E088E251
S113091090E00E94780065E088E290E00E94780010
S113092066E088E290E00E94850060E086E290E064
S11309300E949100813029F48AE08093A6061092E7
S1130940A70661E086E290E00E949100813029F4DC
S11309508BE08093A6061092A70662E086E290E000
S11309600E949100813031F48CE08093A6061092AD
S1130970A70627C08091A60681110BC061E00E94E2
S1130980DA0081E494E00E94EC0081E294E00E94A9
S113099080068091A6068130A1F461E080E00E9487
S11309A0DA0087E394E00E94EC0061E080E00E94BA
S11309B0DA0088E494E00E94EC0082E594E00E946E
S11309C080068091A6068230A1F461E080E00E9456
S11309D0DA0087E394E00E94EC0061E080E00E948A
S11309E0DA008DE794E00E94EC008BE894E00E942A
S11309F080068091A6068330A1F461E080E00E9425
S1130A00DA0087E394E00E94EC0061E080E00E9459
S1130A10DA0086EB94E00E94EC0087EC94E00E94FC
S1130A2080068091A6068430A1F461E080E00E94F3
S1130A30DA0087E394E00E94EC0061E080E00E9429
S1130A40DA0082EF94E00E94EC008EEF94E00E94C2
S1130A5080068091A6068530A1F461E080E00E94C2
S1130A60DA0087E394E00E94EC0061E080E00E94F9
S1130A70DA0089E295E00E94EC0086E395E00E94AA
S1130A8080068091A6068630A1F461E080E00E9491
S1130A90DA0087E394E00E94EC0061E080E00E94C9
S1130AA0DA0081E695E00E94EC0082E795E00E947E
S1130AB080068091A6068730A1F461E080E00E9460
S1130AC0DA0087E394E00E94EC0061E080E00E9499
S1130AD0DA008DE995E00E94EC0083EA95E00E943B
S1130AE080068091A6068830A1F461E080E00E942F
S1130AF0DA0087E394E00E94EC0061E080E00E9469
S1130B00DA008DE995E00E94EC008EEC95E00E94FD
S1130B1080068091A6068930A1F461E080E00E94FD
S1130B20DA0087E394E00E94EC0061E080E00E9438
S1130B30DA008DE995E00E94EC0089EF95E00E94CF
S1130B4080068091A6068A30A1F461E080E00E94CC
S1130B50DA0087E394E00E94EC0061E080E00E9408
S1130B60DA008DE995E00E94EC0084E296E00E94B0
S1130B7080068091A6068B30A1F461E080E00E949B
S1130B80DA0087E394E00E94EC0061E080E00E94D8
S1130B90DA008DE995E00E94EC008FE496E00E9473
S1130BA080068091A6068C30A1F461E080E00E946A
S1130BB0DA0087E394E00E94EC0061E080E00E94A8
S1130BC0DA008DE995E00E94EC008AE796E00E9445
S1130BD08006FF91EF91BF91AF919F918F917F918B
S1130BE06F915F914F913F912F910F900FBE0F9096
S1130BF01F9018951F920F920FB60F9211242F93E6
S1130C008F939F93EF93FF938091C0002091C60030
S1130C108C71E091AA06EF5FEF719091A906E91734
S1130C2039F0E093AA06F0E0E355F94F208301C0C0
S1130C3082E09091A806892B8093A806FF91EF91FA
S1130C409F918F912F910F900FBE0F901F90189529
S1130C501F920F920FB60F9211248F939F93EF93CD
S1130C60FF939091AC068091AB06981769F0E091E0
S1130C70AB06EF5FEF73E093AB06F0E0E353F94F9D
S1130C8080818093C60005C0E1ECF0E080818F7D17
S1130C908083FF91EF919F918F910F900FBE0F90E2
S1130CA01F9018951092AC061092AB061092AA06EB
S1130CB01092A90699231CF422E02093C000907896
S1130CC09093C5008093C40088E98093C10086E0B6
S1130CD08093C20008952091AC062F5F2F739091EA
S1130CE0AB062917E1F3E22FF0E0E353F94F8083D9
S1130CF02093AC06E1ECF0E080818062808308956B
S1130D00CF93DF93EC018881882331F021960E94F0
S1130D106B0689918111FBCFDF91CF910895EE0F7E
S1110D20FF1F0590F491E02D0994F894FFCF85
S1130D2E789DBFD9EAF0EAD9BF9D785331170600F2
S1130D3E061731530004080B0F13161A1D2124270E
S1130D4E2B2E3134373A3D404346494B4E51535680
S1130D5E595B5E60626567696C6E70727476787AE0
S1130D6E7C7E8082848688898B8D8E9092939597D3
S1130D7E989A9B9D9E9FA1A2A4A5A6A8A9AAABAD35
S1130D8EAEAFB0B1B2B3B5B6B7B8B9BABBBCBDBEEF
S1130D9EBFC0C0C1C2C3C4C5C6C6C7C8C9CACACBF0
S1130DAECCCCCDCECFCFD0D1D1D2D2D3D4D4D5D525
S1130DBED6D7D7D8D8D9D9DADADBDBDCDCDDDDDE81
S1130DCEDEDEDFDFE0E0E0E1E1E2E2E2E3E3E3E402
S1130DDEE4E4E5E5E5E6E6E6E7E7E7E8E8E8E8E99A
S1130DEEE9E9EAEAEAEAEBEBEBEBEBECECECECED43
S1130DFEEDEDEDEDEEEEEEEEEEEEEFEFEFEFEFF0FE
S1130E0EF0F0F0F0F0F0F1F1F1F1F1F1F1F2F2F2C3
S1130E1EF2F2F2F2F2F3F3F3F3F3F3F3F3F3F4F493
S1130E2EF4F4F4F4F4F4F4F4F4F5F5F5F5F5F5F569
S1130E3EF5F5F5F5020406080A0C0E101214151732
S1130E4E191B1D1F21232527292B2D2F3133353710
S1130E5E393B3D3F40424446484A4C4E505254560C
S1130E6E585A5C5E6062646668696B6D6F71737507
S1130E7E77797B7D7F81838587898B8D8F91929402
S1130E8E96989A9C9EA0A2A4A6A8AAACAEB0B2B400
S1130E9EB6B8BABCBDBFC1C3C5C7C9CBCDCFD1D3FC
S1130EAED5D7D9DBDDDFE1E3E5E6E8EAECEEF0F2F7
S1130EBEF4F6F8FAF8F6F4F2F0EEECEAE8E6E5E326
S1130ECEE1DFDDDBD9D7D5D3D1CFCDCBC9C7C5C3F0
S1130EDEC1BFBDBCBAB8B6B4B2B0AEACAAA8A6A4D3
S1130EEEA2A09E9C9A98969492918F8D8B898785B9
S1130EFE83817F7D7B79777573716F6D6B6968669E
S1130F0E6462605E5C5A58565452504E4C4A48467F
S1130F1E4442403F3D3B39373533312F2D2B292762
S1130F2E2523211F1D1B1917151412100E0C0A0848
S1130F3E06040200808386898C8F9295989C9FA2CA
S1130F4EA5A8ABAEB0B3B6B9BCBFC1C4C7C9CCCEED
S1130F5ED1D3D5D8DADCDEE0E2E4E6E8EAEBEDEF75
S1130F6EF0F2F3F4F6F7F8F9FAFBFBFCFDFDFEFEE6
S1130F7EFEFFFFFFFFFFFFFFFEFEFDFDFCFCFBFA85
S1130F8EF9F8F7F6F5F4F2F1EFEEECEBE9E7E5E359
S1130F9EE1DFDDDBD9D7D4D2CFCDCAC8C5C3C0BD3E
S1130FAEBAB8B5B2AFACA9A6A3A09D9A9794918EE8
S1130FBE8A8784817E7B7875716E6B6865625F5CEF
S1130FCE595653504D4A4745423F3C3A37353230D5
S1130FDE2D2B28262422201E1C1A18161413111029
S1130FEE0E0D0B0A0908070605040303020201018C
S1130FFE00000000000000010101020203040405C8
S113100E060708090B0C0D0F1012141517191B1DCA
S113101E1F212325272A2C2E313336383B3E4043BD
S113102E46494C4F5154575A5D6063676A6D7073ED
S113103E76797C4F5554505554205349474E414C64
S113104E004E6F6E6520696E7075742064617461F4
S113105E2E2E2E200D0A000909090909090909096C
S113106E090909090909090053494E4520574156F2
S113107E450044544D46206C6F772066203D203643
S113108E3937487A20616E64206869676820662063
S113109E3D2031323039487A2E200D0A00545249FF
S11310AE414E474C4520574156450044544D462029
S11310BE6C6F772066203D20363937487A20616E72
S11310CE6420686967682066203D203133333648D2
S11310DE7A2E200D0A004558504F4E454E54494124
S11310EE4C20574156450044544D46206C6F772092
S11310FE66203D20363937487A20616E642068694F
S113110E67682066203D2031343737487A2E200D0B
S113111E0A005351554152452057415645004454F7
S113112E4D46206C6F772066203D20373730487A45
S113113E20616E6420686967682066203D20313224
S113114E3039487A2E200D0A00444952414320502A
S113115E554C5345530044544D46206C6F772066CE
S113116E203D20373730487A20616E6420686967E5
S113117E682066203D2031333336487A2E200D0AFE
S113118E004E4F4953452053494E5553205741560F
S113119E450044544D46206C6F772066203D203721
S11311AE3730487A20616E6420686967682066204B
S11311BE3D2031343737487A2E200D0A00524553DC
S11311CE45540044544D46206C6F772066203D20D4
S11311DE383532487A20616E642068696768206603
S11311EE203D2031323039487A2E200D0A004454E5
S11311FE4D46206C6F772066203D20383532487A74
S113120E20616E6420686967682066203D20313352
S113121E3336487A2E200D0A0044544D46206C6F06
S113122E772066203D20383532487A20616E64205E
S113123E686967682066203D2031343737487A2E36
S113124E200D0A0044544D46206C6F772066203DD5
S113125E20393431487A20616E64206869676820C9
S113126E66203D2031323039487A2E200D0A004452
S113127E544D46206C6F772066203D20393431481A
S113128E7A20616E6420686967682066203D20318B
S113129E333336487A2E200D0A0044544D46206CC2
S11312AE6F772066203D20393431487A20616E6490
S11312BE20686967682066203D2031343737487AC4
S10912CE2E200D0A0000B1
S9030000FC
