S01700004763634170706C69636174696F6E312E737265635B
S11300000C9434000C943E000C943E000C943E007E
S11300100C943E000C943E000C943E000C943E0064
S11300200C943E000C943E000C943E000C943E0054
S11300300C943E000C943E000C943E000C943E0044
S11300400C943E000C943E000C943E000C943E0034
S11300500C943E000C943E000C943E000C943E0024
S11300600C943E000C943E0011241FBECFEFD8E048
S1130070DEBFCDBF0E9440000C9464010C940000CC
S1130080259A2D9880E295B1982795B92FEF35EAF6
S11300909EE0215030409040E1F700C000002FEF77
S11300A035EA9EE0215030409040E1F700C0000066
S11300B095B1982795B92FEF35EA9EE0215030404D
S11300C09040E1F700C0000095B1982795B92FEF53
S11300D035EA9EE0215030409040E1F700C0000036
S11300E095B1982795B92FEF35EA9EE0215030401D
S11300F09040E1F700C0000095B1982795B92FEF23
S113010035EA9EE0215030409040E1F700C0000005
S113011095B1982795B92FEF35EA9EE021503040EC
S11301209040E1F700C0000095B1982795B92FEFF2
S113013035EA9EE0215030409040E1F700C00000D5
S113014095B1982795B92FEF35EA9EE021503040BC
S11301509040E1F700C0000095B1982795B92FEFC2
S113016035EA9EE0215030409040E1F700C00000A5
S113017095B1982795B92FEF35EA9EE0215030408C
S11301809040E1F700C0000095B1982795B92FEF92
S113019035EA9EE0215030409040E1F700C0000075
S11301A095B1982795B92FEF35EA9EE0215030405C
S11301B09040E1F700C0000095B1982795B92FEF62
S11301C035EA9EE0215030409040E1F700C0000045
S11301D02FEF35EA9EE0215030409040E1F700C017
S11301E0000095B1982795B92FEF35EA9EE021508C
S11301F030409040E1F700C0000095B1982795B9D0
S11302002FEF35EA9EE0215030409040E1F700C0E6
S113021000002FEF35EA9EE0215030409040E1F796
S113022000C0000095B1982795B92FEF35EA9EE0FC
S1130230215030409040E1F700C0000095B198276C
S113024095B92FEF35EA9EE0215030409040E1F718
S113025000C000002FEF35EA9EE02150304090406E
S1130260E1F700C0000095B1982795B92FEF35EA62
S11302709EE0215030409040E1F700C000002FEF95
S113028035EA9EE0215030409040E1F700C0000084
S11302902FEF35EA9EE0215030409040E1F700C056
S11302A000002FEF35EA9EE0215030409040E1F706
S11302B000C000002FEF35EA9EE02150304090400E
S10F02C0E1F700C00000DFCEF894FFCF8F
S9030000FC
