S00C00004C6162362E73726563D3
S11300000C9434000C9451000C9451000C94510045
S11300100C9451000C9451000C9451000C94510018
S11300200C9451000C9436010C9451000C94510022
S11300300C9451000C9451000C9451000C945100F8
S11300400C94F6010C9451000C9451000C94510042
S11300500C9451000C9451000C9451000C945100D8
S11300600C9451000C94510011241FBECFEFD8E022
S1130070DEBFCDBF11E0A0E0B1E0EAE5F5E002C0EB
S113008005900D92A833B107D9F721E0A8E3B1E0B8
S113009001C01D92AF33B207E1F70E94EE000C9449
S11300A0AB020C940000299A000029980895CF937C
S11300B0C82F662311F0289A01C02898549A559A9B
S11300C0569A579A5F985E985D985C98CC230CF486
S11300D05F9AC6FD5E9AC5FD5D9AC4FD5C9A0E9456
S11300E053005F985E985D985C98C3FD5F9AC2FD6B
S11300F05E9AC1FD5D9AC0FD5C9A0E9453005C9AB1
S11301005D9A5E9A5F9A8AEF8A95F1F7CF91089586
S113011060E00E945700089561E00E94570008952E
S1130120611104C080580E948800089580540E9480
S11301308800089581E00E948800089561E00E948B
S113014057000895CF93DF93EC012196FC01808141
S1130150882329F00E949E0089918111FBCFDF91B1
S1130160CF910895CF93C82F209A559A219A549AE3
S1130170559A569A579A8FE99FE00197F1F700C074
S113018000005D9A5C9A0E94530081EE94E001970E
S1130190F1F700C000000E94530095E19A95F1F731
S11301A000000E94530085E18A95F1F700005C98F5
S11301B00E94530095E19A95F1F7000088E20E94AD
S11301C0880088E00E9488000E949A0086E00E94CD
S11301D088008C2F0E948800CF9108958CE00E94A3
S11301E0B20080E40E948800C0E0D1E000E311E0A6
S11301F089910E948C00C017D107D1F780E80E9432
S1130200880060E081E00E94900080E391E00E9419
S1130210A20060E08BE00E94900081E60E949E00B4
S113022061E081E00E94900082E60E949E0061E00D
S11302308BE00E94900083E60E949E00E1EBF0E0D8
S11302408081876080838083E0E7F0E08081816043
S1130250808385B58D7F85BD85B5856085BDEEE6DA
S1130260F0E08081816080837894FFCF1F920F92A9
S11302700FB60F9211241F932F933F934F935F93C5
S11302806F937F938F939F93AF93BF93EF93FF935A
S1130290CF93DF9300D0CDB7DEB710913E0180E25B
S11302A090E09A83898380913D018F5F863018F4B2
S11302B080933D0185C010923D0180913C018F5F88
S11302C08A3018F480933C0106C010923C0181E00E
S11302D0810F80933E0180913C014AE0BE016F5F33
S11302E07F4F90E00E94760260E087E00E949000D9
S11302F0CE0101960E94A20080913E018C3370F0E1
S113030010923E0180913B018F5F80933B0160E03E
S113031084E00E94900080E30E949E0080913E0150
S11303204AE0BE016F5F7F4F90E00E9476028091A9
S11303303E018A3028F060E084E00E94900004C00E
S113034060E085E00E949000CE0101960E94A20028
S113035080913B018D3348F010923B0180E30E9471
S11303609E0060E082E00E94900080913B014AE0A0
S1130370BE016F5F7F4F90E00E94760280913B0147
S11303808A3028F060E081E00E94900004C060E0C0
S113039082E00E949000CE0101960E94A2004AE0F1
S11303A0BE016F5F7F4F119FC00111240E9476022E
S11303B060E08BE00E949000CE0101960E94A200B2
S11303C00F900F90DF91CF91FF91EF91BF91AF917B
S11303D09F918F917F916F915F914F913F912F9159
S11303E01F910F900FBE0F901F9018951F920F92A0
S11303F00FB60F9211242F933F934F935F936F93F4
S11304007F938F939F93AF93BF93EF93FF93109238
S11304103A018091390161E08F5F0E9490008091E0
S113042038010E949E00809138018F5F80933801CB
S1130430863008F44AC0809139018F5F8093390176
S113044010923801893009F040C01092390161E0FE
S11304500E94900080E00E949E0061E088E00E947B
S1130460900080E00E949E0061E087E00E9490007E
S113047080E00E949E0061E086E00E94900080E09F
S11304800E949E0061E085E00E94900080E00E944E
S11304909E0061E084E00E94900080E00E949E0043
S11304A061E083E00E94900080E00E949E0061E091
S11304B082E00E94900080E00E949E0061E081E062
S11304C00E94900080E00E949E00FF91EF91BF91F6
S11304D0AF919F918F917F916F915F914F913F91D8
S11304E02F910F900FBE0F901F901895BB274A3085
S11304F031F4992322F4BDE2909581959F4F0C9499
S11305008202BB27FB015527AA27880F991FAA1F20
S1130510A41710F0A41B83955051B9F7A05DAA331A
S113052008F0A95DA193009779F7B111B1931192E5
S1130530CB010C949B02DC01FC01672F71917723A2
S1130540E1F7329704C07C916D9370836291AE178A
S10D0550BF07C8F30895F894FFCF25
S113055A000000000000000010101010101010100D
S113056A18181818181818181C1C1C1C1C1C1C1CDD
S113057A1E1E1E1E1E1E1E1E1F1F1F1F1F1F1F1F85
S10B058A30303A30302E30000D
S9030000FC
