S01200004C65645F706F6B7573312E737265633B
S11300000C9434000C943E000C943E000C943E007E
S11300100C943E000C943E000C943E000C943E0064
S11300200C943E000C943E000C943E000C943E0054
S11300300C943E000C943E000C943E000C943E0044
S11300400C943E000C943E000C943E000C943E0034
S11300500C943E000C943E000C943E000C943E0024
S11300600C943E000C943E0011241FBECFEFD8E048
S1130070DEBFCDBF0E9440000C9406010C9400002A
S1130080209A2898219A2998229A2A98239A2B9878
S1130090249A2C985098589A399A419880E090E084
S11300A051E022E044E038E060E1E1E070E0A0E00B
S11300B0F0E0489915C0892B21F488B1822788B9CA
S11300C012C088B1822788B98FEF93E2B4EF8150D0
S11300D09040B040E1F700C000008A2F9F2FE9CF85
S11300E08130910531F785B1852785B98FEF99E680
S11300F0B8E181509040B040E1F700C0000085B104
S1130100852785B985B1822785B98FEF99E6B8E14E
S113011081509040B040E1F700C0000085B18227D3
S113012085B985B1842785B98FEF99E6B8E1815007
S11301309040B040E1F700C0000085B1842785B944
S113014085B1832785B98FEF99E6B8E18150904056
S1130150B040E1F700C0000085B1832785B985B1BF
S1130160862785B98FEF99E6B8E181509040B04079
S1130170E1F700C0000085B1862785B985B18327E2
S113018085B98FEF99E6B8E181509040B040E1F72E
S113019000C0000085B1832785B985B1842785B95E
S11301A08FEF99E6B8E181509040B040E1F700C08C
S11301B0000085B1842785B985B1822785B98FEF81
S11301C099E6B8E181509040B040E1F700C00000EA
S11301D085B1822785B985B1852785B98FEF99E6E1
S11301E0B8E181509040B040E1F700C0000085B113
S11301F0852785B98FEF99E6B8E181509040B040EA
S1130200E1F700C000008E2F972F53CFF894FFCF53
S9030000FC
