S00F000050726F6A6563742E737265633E
S11300000C9434000C9449000C9449000C9449005D
S11300100C9449000C9449000C9449000C94490038
S11300200C9449000C9449000C9449000C94490028
S11300300C9449000C9449000C9449000C94490018
S11300400C9449000C9449000C9449000C94490008
S11300500C9449000C9449000C9449000C944900F8
S11300600C9449000C94490011241FBECFEFD8E032
S1130070DEBFCDBF11E0A0E0B1E0ECE3F1E002C0EF
S113008005900D92A030B107D9F70E9476000C9428
S11300909C000C940000FC01408121E030E002C08F
S11300A0220F331F6A95E2F7242B20830895FC0165
S11300B0808121E030E002C0220F331F6A95E2F70D
S11300C0922F90958923808380818181282B21839D
S11300D00895FC01908121E030E002C0220F331F1B
S11300E06A95E2F7209529232083089560E087E24A
S11300F090E00E944B0060E088E290E00E9469007A
S113010061E08AE290E00E94570062E08AE290E0B7
S11301100E94570063E08AE290E00E94570065E085
S11301208AE290E00E94570066E08AE290E00E9432
S10F0130570080E090E00895F894FFCFA1
S9030000FC
